{
  "_format": "hh-sol-artifact-1",
  "contractName": "Meat",
  "sourceName": "contracts/meat.sol",
  "abi": [
    {
      "inputs": [
        {
          "internalType": "string",
          "name": "_ProdCode",
          "type": "string"
        },
        {
          "internalType": "string",
          "name": "_DistributorID",
          "type": "string"
        }
      ],
      "name": "UpdateDistributor",
      "outputs": [
        {
          "internalType": "bool",
          "name": "",
          "type": "bool"
        }
      ],
      "stateMutability": "nonpayable",
      "type": "function"
    },
    {
      "inputs": [
        {
          "internalType": "string",
          "name": "_ProdCode",
          "type": "string"
        },
        {
          "internalType": "string",
          "name": "_RetailorID",
          "type": "string"
        }
      ],
      "name": "UpdateRetailor",
      "outputs": [
        {
          "internalType": "bool",
          "name": "",
          "type": "bool"
        }
      ],
      "stateMutability": "nonpayable",
      "type": "function"
    },
    {
      "inputs": [
        {
          "internalType": "string",
          "name": "_ProdCode",
          "type": "string"
        },
        {
          "internalType": "string",
          "name": "_ProductDetails",
          "type": "string"
        },
        {
          "internalType": "string",
          "name": "_SnEDate",
          "type": "string"
        }
      ],
      "name": "create",
      "outputs": [
        {
          "internalType": "bool",
          "name": "",
          "type": "bool"
        }
      ],
      "stateMutability": "nonpayable",
      "type": "function"
    },
    {
      "inputs": [
        {
          "internalType": "string",
          "name": "_ProdCode",
          "type": "string"
        }
      ],
      "name": "retrieve",
      "outputs": [
        {
          "internalType": "string",
          "name": "",
          "type": "string"
        },
        {
          "internalType": "string",
          "name": "",
          "type": "string"
        },
        {
          "internalType": "uint256",
          "name": "",
          "type": "uint256"
        },
        {
          "internalType": "string",
          "name": "",
          "type": "string"
        },
        {
          "internalType": "uint256",
          "name": "",
          "type": "uint256"
        },
        {
          "internalType": "string",
          "name": "",
          "type": "string"
        },
        {
          "internalType": "uint256",
          "name": "",
          "type": "uint256"
        }
      ],
      "stateMutability": "view",
      "type": "function"
    }
  ],
  "bytecode": "0x608060405234801561001057600080fd5b50610be0806100206000396000f3fe608060405234801561001057600080fd5b506004361061004c5760003560e01c80635d28560a1461005157806364cc732714610081578063e12e4f7b146100b7578063f59bc14b146100e7575b600080fd5b61006b60048036038101906100669190610827565b610117565b604051610078919061095d565b60405180910390f35b61009b6004803603810190610096919061077a565b6101f5565b6040516100ae9796959493929190610978565b60405180910390f35b6100d160048036038101906100cc91906107bb565b6104d1565b6040516100de919061095d565b60405180910390f35b61010160048036038101906100fc91906107bb565b6105bd565b60405161010e919061095d565b60405180910390f35b60008060008560405161012a9190610946565b9081526020016040518091039020600001805461014690610ad8565b905014156101e9578260008560405161015f9190610946565b9081526020016040518091039020600001908051906020019061018392919061066f565b50816000856040516101959190610946565b908152602001604051809103902060010190805190602001906101b992919061066f565b50426000856040516101cb9190610946565b908152602001604051809103902060020181905550600190506101ee565b600090505b9392505050565b60608060006060600060606000806000896040516102139190610946565b90815260200160405180910390206040518060e001604052908160008201805461023c90610ad8565b80601f016020809104026020016040519081016040528092919081815260200182805461026890610ad8565b80156102b55780601f1061028a576101008083540402835291602001916102b5565b820191906000526020600020905b81548152906001019060200180831161029857829003601f168201915b505050505081526020016001820180546102ce90610ad8565b80601f01602080910402602001604051908101604052809291908181526020018280546102fa90610ad8565b80156103475780601f1061031c57610100808354040283529160200191610347565b820191906000526020600020905b81548152906001019060200180831161032a57829003601f168201915b505050505081526020016002820154815260200160038201805461036a90610ad8565b80601f016020809104026020016040519081016040528092919081815260200182805461039690610ad8565b80156103e35780601f106103b8576101008083540402835291602001916103e3565b820191906000526020600020905b8154815290600101906020018083116103c657829003601f168201915b505050505081526020016004820154815260200160058201805461040690610ad8565b80601f016020809104026020016040519081016040528092919081815260200182805461043290610ad8565b801561047f5780601f106104545761010080835404028352916020019161047f565b820191906000526020600020905b81548152906001019060200180831161046257829003601f168201915b505050505081526020016006820154815250509050806000015181602001518260400151836060015184608001518560a001518660c00151975097509750975097509750975050919395979092949650565b6000806000846040516104e49190610946565b9081526020016040518091039020600001805461050090610ad8565b905011156105b257600080846040516105199190610946565b90815260200160405180910390209050600081600501805461053a90610ad8565b905014156105a857826000856040516105539190610946565b9081526020016040518091039020600501908051906020019061057792919061066f565b50426000856040516105899190610946565b90815260200160405180910390206006018190555060019150506105b7565b60009150506105b7565b600090505b92915050565b6000806000846040516105d09190610946565b908152602001604051809103902060000180546105ec90610ad8565b9050111561066457600080846040516106059190610946565b90815260200160405180910390209050600081600301805461062690610ad8565b9050141561065a578281600301908051906020019061064692919061066f565b504281600401819055506001915050610669565b6000915050610669565b600090505b92915050565b82805461067b90610ad8565b90600052602060002090601f01602090048101928261069d57600085556106e4565b82601f106106b657805160ff19168380011785556106e4565b828001600101855582156106e4579182015b828111156106e35782518255916020019190600101906106c8565b5b5090506106f191906106f5565b5090565b5b8082111561070e5760008160009055506001016106f6565b5090565b600061072561072084610a28565b610a03565b90508281526020810184848401111561073d57600080fd5b610748848285610a96565b509392505050565b600082601f83011261076157600080fd5b8135610771848260208601610712565b91505092915050565b60006020828403121561078c57600080fd5b600082013567ffffffffffffffff8111156107a657600080fd5b6107b284828501610750565b91505092915050565b600080604083850312156107ce57600080fd5b600083013567ffffffffffffffff8111156107e857600080fd5b6107f485828601610750565b925050602083013567ffffffffffffffff81111561081157600080fd5b61081d85828601610750565b9150509250929050565b60008060006060848603121561083c57600080fd5b600084013567ffffffffffffffff81111561085657600080fd5b61086286828701610750565b935050602084013567ffffffffffffffff81111561087f57600080fd5b61088b86828701610750565b925050604084013567ffffffffffffffff8111156108a857600080fd5b6108b486828701610750565b9150509250925092565b6108c781610a80565b82525050565b60006108d882610a59565b6108e28185610a64565b93506108f2818560208601610aa5565b6108fb81610b99565b840191505092915050565b600061091182610a59565b61091b8185610a75565b935061092b818560208601610aa5565b80840191505092915050565b61094081610a8c565b82525050565b60006109528284610906565b915081905092915050565b600060208201905061097260008301846108be565b92915050565b600060e0820190508181036000830152610992818a6108cd565b905081810360208301526109a681896108cd565b90506109b56040830188610937565b81810360608301526109c781876108cd565b90506109d66080830186610937565b81810360a08301526109e881856108cd565b90506109f760c0830184610937565b98975050505050505050565b6000610a0d610a1e565b9050610a198282610b0a565b919050565b6000604051905090565b600067ffffffffffffffff821115610a4357610a42610b6a565b5b610a4c82610b99565b9050602081019050919050565b600081519050919050565b600082825260208201905092915050565b600081905092915050565b60008115159050919050565b6000819050919050565b82818337600083830152505050565b60005b83811015610ac3578082015181840152602081019050610aa8565b83811115610ad2576000848401525b50505050565b60006002820490506001821680610af057607f821691505b60208210811415610b0457610b03610b3b565b5b50919050565b610b1382610b99565b810181811067ffffffffffffffff82111715610b3257610b31610b6a565b5b80604052505050565b7f4e487b7100000000000000000000000000000000000000000000000000000000600052602260045260246000fd5b7f4e487b7100000000000000000000000000000000000000000000000000000000600052604160045260246000fd5b6000601f19601f830116905091905056fea2646970667358221220e5af1d783ddea0ca856677155245efb18a21a032db0a554abc76ed49c47dcfe564736f6c63430008040033",
  "linkReferences": {},
  "deployedLinkReferences": {}
}